:020000022000DC
:1070000000000420B5E30300F5E30300F7E3030009
:10701000F9E30300FBE30300FDE3030000000000CD
:107020000000000000000000000000003DE203003E
:1070300001E40300000000005DE2030005E403003A
:1070400009E6030007E4030007E403003D490300E9
:10705000F149030007E4030015B7030007E4030048
:1070600007E4030007E4030007E4030007E4030068
:1070700007E4030007E4030007E4030007E4030058
:1070800007E403008DDF030007E4030007E40300C7
:1070900007E4030007E4030085D3020007E40300CC
:1070A00007E4030007E4030007E4030007E4030028
:1070B00007E4030007E403000000000000000000F4
:1070C00007E4030007E4030007E403001DEB0300EB
:1070D00007E4030007E4030007E40300BDE7020040
:1070E00007E4030007E4030007E4030000000000D6
:1070F0000000000007E403000000000095EB03001F
:10710000000000000000000000000000000000007F
:10711000000000000000000000000000000000006F
:10712000000000000000000000000000000000005F
:10713000000000000000000000000000000000004F
:10714000000000000000000000000000000000003F
:10715000000000000000000000000000000000002F
:10716000000000000000000000000000000000001F
:10717000000000000000000000000000000000000F
:1071800000000000000000000000000000000000FF
:1071900000000000000000000000000000000000EF
:1071A00000000000000000000000000000000000DF
:1071B00000000000000000000000000000000000CF
:1071C00000000000000000000000000000000000BF
:1071D00000000000000000000000000000000000AF
:1071E000000000000000000000000000000000009F
:1071F000000000000000000000000000000000008F
:10720000F1EE103A43F08073E1EE103A704700BFA0
:1072100010B5054C237833B9044B13B10448AFF3D0
:1072200000800123237010BD846300200000000053
:10723000E4CB040008B5034B1BB103490348AFF38B
:10724000008008BD0000000088630020E4CB04003B
:10725000154B002B08BF134B9D46A3F5803A002128
:107260008B460F461348144A121A1DF0C3FB0F4BEE
:10727000002B00D098470E4B002B00D098470020E1
:10728000002104000D000D48002802D00C48AFF387
:1072900000801DF03DFB2000290017F0E3F81DF0F1
:1072A00011FB00BF000008000000042000000000E7
:1072B000000000008463002018A2002000000000ED
:1072C0000000000033DF70473FDF704741DF704749
:1072D00012DF7047014B01221A7070473866002098
:1072E00003B97047142B38B528BF1423114605463F
:1072F0001A4606481C461DF055FB054A0549064B33
:10730000148001220D801A7038BD00BFA4630020D4
:10731000A063002004600020B863002083B170B532
:10732000013B084E12FA83F5541E14F8011F304633
:1073300014F072FBAC42F8D1034B01221A7070BDFD
:10734000704700BF0867002014670020000000009D
:1073500070B510EE100A10EE106A1CF0A3FD64A3C5
:10736000D3E9002304460D461DF07AF8002840F0CA
:107370009C8061A3D3E90023204629461DF070F8C4
:10738000002840F096805EA3D3E9002320462946DA
:107390001DF066F8002840F08A805BA3D3E9002343
:1073A000204629461DF05CF8002840F0848007EE56
:1073B000106AF1EE007AB4EEE77AF1EE10FA7CDAB8
:1073C00053A3D3E90023204629461DF049F800289D
:1073D00075D151A3D3E90023204629461DF040F87A
:1073E00000286ED14EA3D3E90023204629461DF084
:1073F00037F8002869D14CA3D3E900232046294659
:107400001DF02EF8002862D107EE106AF0EE0E7A19
:10741000B4EEE77AF1EE10FA5BDA45A3D3E9002384
:10742000204629461DF01CF8002854D142A3D3E978
:107430000023204629461DF013F800284DD140A313
:10744000D3E90023204629461DF00AF800283AD146
:107450003DA3D3E90023204629461DF001F800286A
:107460003DD107EE106AF0EE0C7AB4EEE77AF1EE59
:1074700010FA36DA36A3D3E90023204629461CF059
:10748000EFFF80BB34A3D3E90023204629461CF03C
:10749000E7FF50BB32A3D3E90023204629461CF066
:1074A000DFFF003818BF012070BD642070BD5A2076
:1074B00070BD5F2070BD552070BD502070BD46204E
:1074C00070BD3C2070BD0A2070BD322070BD2820E8
:1074D00070BD1E2070BD142070BD0F2070BD072030
:1074E00070BD052070BD032070BD022070BD00BFBF
:1074F000CDCCCCCCCCCC10409A999999999910408C
:107500006666666666661040333333333333104045
:107510009A99999999990F403333333333330F4004
:10752000CDCCCCCCCCCC0E406666666666660E4092
:107530009A99999999990D403333333333330D40E8
:10754000CDCCCCCCCCCC0C406666666666660C4076
:107550009A99999999990B403333333333330B40CC
:107560006666666666660A40D0B52DED028B8AB007
:1075700014F0E4FB644A136842F6DF61C31A8B42DD
:1075800003D80AB0BDEC028BD0BD5DA7D7E9006778
:107590009FED5E8A10600A24232017F073FE1CF012
:1075A0006FFC32463B461CF0D5FC1CF06DFF07EE2D
:1075B000900A013C38EE278AEED1DFED558A554915
:1075C00007A814F0E9F8544868EE288A05F0A8FEE8
:1075D000002840F08D8007A814F0ECF901A80221E2
:1075E000B0EE680A14F0A8F94B4805F099FE00289F
:1075F00065D101A814F0DEF9DFED487AB4EEE78A30
:10760000F1EE10FA2ADA9FED460A464CFFF7A0FE8B
:107610004549207007A814F0BFF83F4805F080FEE8
:10762000002845D107A814F0C5F921780A2201A83D
:1076300014F0E6F8384805F073FE00BB01A814F01A
:10764000B9F93A4803F0C0FC3649012280B1374805
:1076500003F0F2FC0AB0BDEC028BD0BDB1EE010A22
:10766000F4EEC08AF1EE10FA98BFB0EE680ACCE7EB
:107670002E4803F08DFC0AB0BDEC028BD0BD01A9F1
:1076800007A814F0A3F82A4907A814F013FA014632
:1076900004A814F09BF807A814F08CF9BDF8182082
:1076A0000499244803F0C8FC04A814F083F9C5E742
:1076B000BDF8242007991F4803F0BEFCB2E701A9DA
:1076C00007A814F083F81A4907A814F0F3F9014643
:1076D00004A814F07BF807A814F06CF9BDF8182082
:1076E0000499144803F0A8FC04A814F063F980E797
:1076F000BDF8242007990F4803F09EFC6BE700BFFC
:10770000C64B378941605D3F3C66002000000000A9
:10771000CDCCCC3D2C980400FC6700200000044236
:10772000333353400660002040980400C8630020B3
:1077300028A80400886700202DE9F043BE4EBF4A08
:1077400033682DED028B002B8BB00546106040F3A3
:10775000F780BB4F07EE903A97ED007AF8EEE77AA4
:1077600087EE278AB74907A814F016F8B64805F03F
:10777000D7FD002840F0088107A814F01BF93168F4
:107780000A2207A814F070F8AF4805F0C9FD0028D8
:1077900040F0F38007A814F00DF9AC4907A813F0E6
:1077A000FBFFA94805F0BCFD002840F0098107A8AF
:1077B00014F000F90121B0EE480A07A814F0BCF853
:1077C000A14805F0ADFD002840F0F38007A814F0B3
:1077D000F1F89F4907A813F0DFFF9B4805F0A0FDD3
:1077E000002840F0DF8007A814F0E4F8994B02214C
:1077F00093ED000A07A814F09FF8934805F090FD58
:10780000002840F0C880DFF88C8207A814F0D2F876
:10781000D8F8004004B32C1B07EE904A9FED8E7AF7
:10782000F8EE677AF4EEC77AF1EE10FA78D5DFED6C
:107830008B7ADFED8B8A9FED8B7A38EE088A28EE03
:10784000278AB4EEC78AF1EE10FA40F325810024AE
:107850009FED858AA14604E09FED838AA146F0EE64
:10786000488A824BC8F800501A6802F10108C3F830
:1078700000807F4A0023A802A90D1CF055FE7D4917
:10788000ADF82080034620227B48ADF822308DF8E9
:107890001E908DF81F400B80ADF81C2003F094FB68
:1078A000002840F0A98000233B607449002307A80A
:1078B000336013F071FF644805F032FD002840F09A
:1078C000948007A814F076F8B0EE680A012107A8A2
:1078D00014F032F85C4805F023FD00287ED107A89B
:1078E00014F068F8664907A813F056FF564805F0EB
:1078F00017FD00286BD107A814F05CF8B0EE480A19
:1079000001A8012114F018F84F4805F009FDD8B975
:1079100001A814F04FF80BB0BDEC028BBDE8F0836A
:107920009FED587AC7EE278AB3EE097AF4EEC78A3C
:10793000F1EE10FA66DA00249FED4B8AA14690E73B
:107940009FED498A3E4F0DE701A907A813F03EFFBE
:107950004D4907A814F0AEF8014604A813F036FF0D
:1079600007A814F027F8BDF818200499474803F039
:1079700063FB04A814F01EF8CAE7BDF82420079999
:10798000424803F059FB05E7BDF8242007993F481A
:1079900003F052FBF0E6BDF8242007993B4803F0C2
:1079A0004BFB30E7BDF824200799384803F044FB2F
:1079B00019E7BDF824200799344803F03DFB05E79B
:1079C000BDF824200799314803F036FBEFE6BDF8F7
:1079D000242007992D4803F02FFB8CE7BDF82420C5
:1079E00007992A4803F028FB79E7BDF82420079976
:1079F000264803F021FB64E7082207A91E4803F08C
:107A00001BFB50E79FED227A67EE877A17EE900A0C
:107A10001CF048FA02460B4605A1D1E900011CF012
:107A2000C3FB1CF031FD07EE900A04E7AFF30080C2
:107A3000182D4454FB21194004670020486600209B
:107A40009C66002058980400FC6700206C98040095
:107A50007C9804004466002000504348D153FB4109
:107A6000000096430000FA4400000000A8650020D2
:107A700040420F00406600205065002084980400BA
:107A800090980400C0E1644C28A804008867002096
:107A9000BD37863578660020FDEEC87A17EE904A2D
:107AA0005FFA84F9C4F30724DBE600BF30B5214C4C
:107AB00083B0002520462571A57325730DF09CF930
:107AC0004FF47A7014F046F920460DF063FA2A4616
:107AD00020465C210DF05EF9204608225B210DF066
:107AE00059F92046802258210DF054F970221021B6
:107AF00020460DF04FF9042014F02CF91022114605
:107B000020460DF047F92046102215210DF042F9CC
:107B1000204620225E210DF03DF91B220DF10701C8
:107B200020460DF097F90521122017F0D9FB03B07C
:107B300030BD00BF4C66002010B54C488AB002F042
:107B40005DFD00214A4805F0C1FB0020FFF7BCFBAA
:107B50000121032017F048FC01210C2017F0C0FB85
:107B600001210C2017F040FC01210B2017F0B8FB7D
:107B700001210B2017F038FC01210D2017F0B0FB7C
:107B800001210D2017F030FC00230D220DF1020120
:107B900038488DF802300DF05DF99DF80220354827
:107BA00002F0F7020D218DF802200DF0F3F81220FB
:107BB00013F056FDFFF77AFF1B220DF103012D484C
:107BC0000DF048F90A2014F0C5F80321122017F02F
:107BD00087FB322014F0BEF8274B28499B6C1F2BE3
:107BE00086BF03F01F03264A4FF0A04203F5E0735F
:107BF000322042F8231014F0ADF8224901A813F006
:107C0000CBFD1B4805F08CFB07AC90B901A813F025
:107C1000D1FE002320468DF81C30FFF759FB9DF85C
:107C20001C30FBB94FF080430122C3F800250AB095
:107C300010BD01A9204613F0C9FD1349204613F0D9
:107C400039FF014604A813F0C1FD204613F0B2FE2F
:107C5000BDF8182004990D4803F0EEF904A813F0BC
:107C6000A9FED3E7FFF72EFB0AB010BD3C6E002043
:107C7000FC6700204C6600209CA504000400020064
:107C800000030050A098040028A804008867002082
:107C90003D4B3E4AD3ED007A13689FED3D6A9FED60
:107CA0003D7A1060C31A06EE903A70EE677AF8EEED
:107CB000666A67EE867A384B67EEA67AB0EEE76AB8
:107CC000B4EEC76AF1EE10FA2DDAD3ED007A9FED2B
:107CD000336AF4EEC67AF1EE10FA34DA9FED307AB8
:107CE000F4EEC77AF1EE10FA01D9002070472D4961
:107CF0002D4AD1ED005A77EE867A07EE100A75EE1E
:107D0000E74AB7EE005A84EEA56A0120C3ED007A77
:107D1000B8EE477A76EE457AA6EEA77AFCEEC77AF9
:107D2000C2ED007A704793ED007A1E4A9FED1B6A00
:107D3000C2ED007A77EE877AF4EEC67AF1EE10FAA9
:107D4000C3ED007ACADB1749174AD1ED004A34EE79
:107D5000865A07EE100A35EE675AB8EE477AC5EE36
:107D6000245A012077EEC67AB7EE004A35EEC46A8F
:107D7000C3ED007AF0EE477AE6EE867AFCEEE77A1B
:107D8000C2ED007A704700BFD0650020C0630020BC
:107D9000BD3786350AD7233CC46300200000B443B6
:107DA0000000B4C3BC6300207C6600202DE9F047CE
:107DB0007D4CDFF81C92DFF81CA27C4F7C4EDFF874
:107DC00018827C4D9CB000222046012105F072F8FB
:107DD0002046012105F07AFA2046002105F028FA14
:107DE0002046754905F0FCF90C222046062103F0D7
:107DF00049FE2046002103F04FFE4FF4C871204693
:107E000003F052FE484604F02FFD5046102103F0C7
:107E100093F800225046112103F0A6F8504608219D
:107E200003F090F8504602F005FD3846022103F0B9
:107E300083F800223846112103F096F838460421D1
:107E400003F080F8384602F0F5FC042241F20823E2
:107E50000DEB02013846019303F09AF830462821D1
:107E600003F06AF811221146304603F07DF83046DF
:107E7000142103F065F801225049514F304603F0B8
:107E800079F8304602F0D6FC02A842F65D2104F0F3
:107E90002FFD02A906A803F019F802A804F020FD9E
:107EA00006A8022103F048F806A8012103F04AF8C9
:107EB00006A802F0BFFC052301220DF1030106A86C
:107EC0008DF8033003F064F8404604F0CDFC2846FA
:107ED000122103F031F800222846112103F044F862
:107EE0002846012103F02EF8284602F0A3FC642363
:107EF00002A9012228468DF8083003F049F83148DC
:107F0000314D04F0B1FC3846102103F015F8002281
:107F10003846112103F028F83846142103F010F8F0
:107F2000384602F087FC28460C2103F005F81122A0
:107F30001146284603F018F82846142103F000F8EB
:107F400001222249284603F015F804F5C8642846A2
:107F500002F070FC0621204602F058FA204602F09A
:107F60003DFA204602F00CFA4946204602F0F2F9AA
:107F70004146204602F0EEF92046012102F078FA4F
:107F8000F4222046202102F06FFA20461E2102F042
:107F900069FA0021204602F0CBFA06A802F030FC74
:107FA0001CB0BDE8F08700BFFC670020F86400202B
:107FB000A0640020C8630020B8980400E1720200A9
:107FC0008867002070670020186700201D7302007A
:107FD000AC650020506500202064002010B5044BE3
:107FE000044640F8083B04F07BFC204610BD00BF6F
:107FF000309F04002DE9F04165496648664D674CA5
:10800000DFF8E881664E674F84B00DF03BFC6049B5
:1080100065480DF037FC5E4964480DF033FC6A2278
:10802000002163480CF08AFE28460CF07DFD2246B4
:10803000604928461BF0CCFD684641F6180104F063
:1080400057FC6946404604F02BFC684604F048FCA7
:108050002246314640461BF0BBFD684642F663218E
:10806000554DDFF88C8104F043FC6946384602F038
:108070002DFF684604F034FC2246294638464F4F0F
:108080001BF0A6FD684642F6652104F031FC694606
:10809000384602F01BFF684604F022FC22462946BF
:1080A0003846474F1BF094FD684642F6662104F0BF
:1080B0001FFC6946384602F009FF684604F010FCD0
:1080C0002246294638463F4F1BF082FD684641F65E
:1080D0000F0104F00DFC6946384604F0E1FB6846E8
:1080E00004F0FEFB224631463846374F1BF070FD48
:1080F000684642F6192104F0FBFB6946384602F057
:10810000E5FE684604F0ECFB2246294638462F4F30
:108110001BF05EFD2E49684604F0F8FB69463846C0
:1081200004F0BEFB684604F0DBFB224631463846CD
:108130001BF04EFD2749284F284E684604F0E6FB09
:108140006946404602F0C2FE684604F0C9FB22467A
:10815000294640461BF03CFD2149684604F0D6FB09
:108160006946384602F0B2FE684604F0B9FB224682
:10817000294638461BF02CFD1A49304613F00CFBFB
:108180001949224630461BF023FD04B0BDE8F081BA
:108190009C8600203864002080660020006000205B
:1081A000DD7F020050650020A0660020D46500201D
:1081B0004C6600204D4B030001A80200F86400202B
:1081C000A064002020640020C863002070670020A5
:1081D000C8980400F0980400186700200867002081
:1081E0001899040048A80400B5B90300AC65002044
:1081F0008867002010B5A6B037490DA80DF042FBE6
:10820000364935480DF030FA34490DA801220DF0F9
:10821000E7FBF0B1324B0A22198801A813F024FBC6
:10822000039A01990DA80DF039FA04AC0DA80DF0D0
:1082300091FC2C49204613F0AFFA2B4805F070F85A
:1082400088BB204613F0B6FB01A813F0B3FB26B0A1
:1082500010BD04AC2549204613F09EFA224805F0D3
:108260005FF820B9204613F0A5FB26B010BD2146CB
:108270000AA813F0ABFA1E490AA813F01BFC01462A
:1082800007A813F0A3FA0AA813F094FBBDF8242062
:108290000799184802F0D0FE07A813F08BFB204680
:1082A00013F088FBE1E721460AA813F08FFA104982
:1082B0000AA813F0FFFB014607A813F087FA0AA8E3
:1082C00013F078FBBDF8242007990A4802F0B4FEA9
:1082D00007A813F06FFBB4E79C8600207499040094
:1082E0000860002088990400FC670020A49904001D
:1082F00028A804008867002010B5A6B037490DA84B
:108300000DF0C0FA364935480DF0AEF934490DA8E4
:1083100001220DF065FBF0B1324B0A22196801A869
:1083200013F0D6FA039A01990DA80DF0B7F904AC31
:108330000DA80DF00FFC2C49204613F02DFA2B4808
:1083400004F0EEFF88BB204613F034FB01A813F0C5
:1083500031FB26B010BD04AC2549204613F01CFAB1
:10836000224804F0DDFF20B9204613F023FB26B09D
:1083700010BD21460AA813F029FA1E490AA813F0D5
:1083800099FB014607A813F021FA0AA813F012FB83
:10839000BDF824200799184802F04EFE07A813F0F4
:1083A00009FB204613F006FBE1E721460AA813F07B
:1083B0000DFA10490AA813F07DFB014607A813F037
:1083C00005FA0AA813F0F6FABDF8242007990A481E
:1083D00002F032FE07A813F0EDFAB4E79C86002005
:1083E000D0990400C4650020E8990400FC670020CF
:1083F000109A040028A804008867002010B5214ABC
:10840000214C1268214B22608AB0012220491A7047
:1084100007A813F0C1F91F4804F082FF90B907A81C
:1084200013F0C8FA216801A80A2213F051FA19487A
:1084300004F076FF68B901A813F0BCFAFFF75CFFFF
:108440000AB010BDBDF824200799134802F0F4FDCE
:10845000E5E701A907A813F0B9F9104907A813F037
:1084600029FB014604A813F0B1F907A813F0A2FAFA
:10847000BDF818200499084802F0DEFD04A813F0A6
:1084800099FAD8E7E0670020C4650020C86500209D
:10849000389A0400FC6700208867002028A80400A0
:1084A0002DE9F0477848CCB012F086FD774978483E
:1084B00000220DF095FA76480DF078FB002800F0C8
:1084C000CF8033AC00251F22214671483595CDE978
:1084D0003355CDE93655CDE938553A950DF0C4FA06
:1084E0004CAB0344204603F8645C1CF0CBF951EC20
:1084F000100B1BF0C9FF674F674938601AAE304652
:1085000013F04AF9654804F00BFF002840F0208280
:10851000304607AD13F04EFA97ED000A28460621C3
:1085200013F00AFA5D4804F0FBFE002840F01782C1
:10853000284613F03FFA56480DF00CFB58495948AD
:1085400000220DF04DFA57480DF030FB8046002810
:1085500075D000251F22214652483595CDE9335567
:10856000CDE93655CDE938553A950DF07DFA4CAB4D
:108570000344204603F8645C1CF08BF94A4F4B49D6
:108580003860304613F008F9444804F0C9FE00286A
:1085900040F0FE81304607AD13F00CFA39682846EA
:1085A0000A2213F095F93D4804F0BAFE002840F085
:1085B000B681284613F0FEF93A480DF0CBFA32495D
:1085C00030460DF05FF93A49002230460DF008FAC6
:1085D00030460DF0EBFA002878D000251F22214606
:1085E0003046CDE93355CDE93655CDE93855359589
:1085F0003A950DF039FA4CAB0344204603F8645C1D
:108600001CF043F980B2002840F0FA8004AD2949FB
:10861000284613F0C1F8214804F082FE002840F0FB
:10862000FE82284613F0C6F92349244B244A1A60D7
:1086300040F25910088030460DF08CFA5BE01A4B7E
:10864000204918600AAF384613F0A6F8134804F022
:1086500067FE002840F00D82384613F0ABF9AEE714
:108660000C4B19490AAF002238461A6013F094F8EF
:108670000A4804F055FE33AC002840F090811AAE51
:10868000384613F097F959E79C860020609A040059
:108690003864002010600020749A0400FC670020F9
:1086A00040990400A0660020E0670020B49A04000E
:1086B00074990400F89A0400086000200C600020FF
:1086C000D7A3303EC49A04008C9A0400C14AC24B1E
:1086D000C248106007AD40F25912C1491A802846BD
:1086E00013F05AF8BF4804F01BFE002840F0A281A6
:1086F000284613F05FF9BC4920460DF0C3F8BB498A
:10870000002220460DF06CF920460DF04FFA03468A
:10871000002800F0D1800AAE002531461F222046F5
:10872000CDE90A55CDE90C55CDE90E55CDE91055E9
:108730000DF09AF903463046F5541CF0AAF8AC4FF8
:10874000AC4B386007AD0122AB491A70284613F0D4
:1087500023F8A44804F0E4FD002840F08481284672
:1087600001AE13F027F9396830460A2213F0B0F849
:108770009C4804F0D5FD002840F01F82304613F0DD
:1087800019F920460DF0E6F99C499D4800220DF0AC
:1087900027F99B480DF00AFA002800F0AA8000256E
:1087A0000AAC29463C220BA80A951CF023F9214665
:1087B0003F229348934F944E0DF056F90246934949
:1087C000A55420463B4632461CF0C2FF022800F06A
:1087D0008B810023336001AE8D493B60304612F03F
:1087E000DBFF804804F09CFD002840F031823046D9
:1087F00013F0E0F882480DF0ADF94CB0BDE8F08719
:1088000007EE900A9FED837ADFF8CCA1DFF8C491E0
:10881000AAF80000F8EE677A0AAF67EE877A7E4919
:10882000C9ED007A384612F0B7FF6E4804F078FDC3
:10883000002840F03A81384604AD13F0BBF899EDBA
:10884000000A2846042113F077F8664804F068FD12
:10885000002840F03081284613F0ACF86F493846C4
:1088600012F09AFF5F4804F05BFD002840F0108290
:10887000384613F09FF8BAF8003000EE103A0121A4
:10888000BBEEEF0A384613F057F8564804F048FD9F
:10889000002840F01C82384613F08CF860492846C6
:1088A00012F07AFF4F4804F03BFD002840F0F681BB
:1088B000284613F07FF8BEE64D4A4E4C106004ADDA
:1088C00058492370284612F067FF464804F028FDF7
:1088D000002840F05981284613F06CF8B8F1000FD9
:1088E0003FF452AF2378002B7FF44EAFFFF786FDA5
:1088F0004AE74548434A4C49002304AD03602846F3
:10890000136012F049FF374804F00AFD002840F0D8
:108910006D81284613F04EF84CB0BDE8F08729462B
:10892000304612F053FF4149304613F0C3F8014678
:108930000AA812F04BFF304613F03CF8BDF8302087
:108940000A993B4802F078FB0AA813F033F830E6A6
:10895000BDF870201A99364802F06EFBD8E529461A
:10896000304612F033FF3149304613F0A3F8014688
:108970000AA812F02BFF304613F01CF8BDF8302087
:108980000A992B4802F058FB0AA813F013F8CFE518
:10899000BDF870201A99264802F04EFBFAE53946D8
:1089A000204612F013FF2149204613F083F81AAE37
:1089B0000146304612F00AFF204612F0FBFFBDF8D8
:1089C00070201A991A4802F037FB304612F0F2FF75
:1089D00056E600BF0C60002008600020D7A3303EA0
:1089E000309B0400FC6700209C860020D099040086
:1089F000C4650020C8650020649B0400B09B04008F
:108A0000D4650020D0650020CC650020C09B040008
:108A1000E49B04006F12033AC0990400E09A04003A
:108A20002C9B0400889B0400089C040028A80400D8
:108A3000886700202946204612F0C8FEA749204634
:108A400013F038F801460AA812F0C0FE204612F0D2
:108A5000B1FFBDF830200A99A14802F0EDFA0AA84A
:108A600012F0A8FF44E62A8929689D4802F0E4FA3A
:108A700075E63946204612F0A9FE9849204613F0C3
:108A800019F80146304612F0A1FE204612F092FF7E
:108A9000BDF870201A99924802F0CEFA304612F0D2
:108AA00089FF384612F086FF89E53A8939688C4893
:108AB00002F0C2FABFE62946384612F087FE87491F
:108AC000384612F0F7FF014607A812F07FFE38463D
:108AD00012F070FFBDF824200799814802F0ACFA2B
:108AE00007A812F067FFB6E607AD7E49284612F0E8
:108AF00053FE7D4804F014FC002840F0C380284653
:108B000012F058FF96ED000A0621284612F014FFD5
:108B1000754804F005FC002840F0AE80284612F0AD
:108B200049FF7249284612F037FE6F4804F0F8FBFF
:108B3000002840F09B80284601AE12F03BFF97EDE5
:108B4000000A3046062112F0F7FE674804F0E8FB01
:108B500000283FF44CAE3146284612F037FE5F49FC
:108B6000284612F0A7FF014604A812F02FFE28465F
:108B700012F020FFBDF818200499594802F05CFA61
:108B800004A812F017FF32E629460AA812F01EFECA
:108B900052490AA812F08EFF014607A812F016FEED
:108BA0000AA812F007FFBDF8242007994C4802F0EC
:108BB00043FA07A812F0FEFE8DE63146284612F071
:108BC00005FE4649284612F075FF014604A812F03A
:108BD000FDFD284612F0EEFEBDF81820049940482D
:108BE00002F02AFA04A812F0E5FEC7E529460AA811
:108BF00012F0ECFD39490AA812F05CFF014607A803
:108C000012F0E4FD0AA812F0D5FEBDF82420079961
:108C1000334802F011FA07A812F0CCFE79E6294693
:108C20000AA812F0D3FD2D490AA812F043FF01460D
:108C300007A812F0CBFD0AA812F0BCFEBDF8242054
:108C40000799274802F0F8F907A812F0B3FEE8E404
:108C5000314607A812F0BAFD204907A812F02AFFF2
:108C6000014604A812F0B2FD07A881E72A89296805
:108C70001B4802F0E1F95EE72A892968184802F0EA
:108C8000DBF94BE72A892968154802F0D5F936E760
:108C90003A893968124802F0CFF9E9E529463846A1
:108CA00012F094FD0D49384612F004FF014607A862
:108CB00012F08CFD384612F07DFEBDF82420079995
:108CC000074802F0B9F907A812F074FEF0E53A89F6
:108CD0003968034802F0B0F9DDE500BF28A80400B8
:108CE00088670020C89B0400FC670020E09B04000C
:108CF00030B58DB09E4903A812F04EFD9D4804F09A
:108D00000FFB09AC002840F0E18003A812F052FEEE
:108D100099480BF00BFD0C2016F07EFA032016F09C
:108D200081FA0121162016F0DBFA0021162016F038
:108D30005BFB01210E2016F0D3FA00210E2016F065
:108D400053FB0021232016F0CBFA0121032016F05B
:108D5000C7FA0021032016F047FB0221084616F04F
:108D6000BFFA0123032202218448009300230BF061
:108D7000EFFE4B2012F0EEFF81490322022012F099
:108D80006BFB4FF47A7012F0E5FF7E4903A812F0F6
:108D900003FD784804F0C4FA00287ED103A812F03D
:108DA00009FE7948002301228381C3820271837303
:108DB0000376837783830CF0EDF8744905462046EB
:108DC00012F0EAFC6B4804F0ABFA00285ED12046B2
:108DD00012F0F0FD0A22294603A812F045FD65486D
:108DE00004F09EFA002838D103A812F0E3FD6DB11B
:108DF000674903A812F0D0FC5E4804F091FA0028FD
:108E000040F09A8003A812F0D5FDFEE7FFF748FB7B
:108E1000FEF7CCFF5F4BDB68D90117D414F0B2F931
:108E20005D4BA0FB0301830A43EA81535B4A5C4923
:108E3000136003A812F0B0FC4E4804F071FA002849
:108E40005DD103A812F0B6FD0DB030BD554B1A68C8
:108E5000D207E3D55B689B09E8E703A9204612F037
:108E6000B5FC5149204612F025FE014606A812F035
:108E7000ADFC204612F09EFDBDF8202006994B481F
:108E800002F0DAF806A812F095FDADE7BDF82C2047
:108E90000999464802F0D0F899E703A9204612F054
:108EA00095FC4149204612F005FE014606A812F045
:108EB0008DFC204612F07EFDBDF8202006993B482F
:108EC00002F0BAF806A812F075FD67E703A920467C
:108ED00012F07CFC3449204612F0ECFD014606A855
:108EE00012F074FC204612F065FDBDF820200699B2
:108EF0002E4802F0A1F806A812F05CFD05E703A9D0
:108F0000204612F063FC2849204612F0D3FD0146AA
:108F100006A812F05BFC204612F04CFDBDF82020A4
:108F20000699224802F088F806A812F043FD03A82B
:108F300012F040FD0DB030BD03A9204612F046FCF2
:108F40001949204612F0B6FD014606A812F03EFC73
:108F5000204612F02FFDBDF820200699134802F09C
:108F60006BF806A812F026FD03A812F023FD4CE7CB
:108F70002C9C0400FC6700202485002080660020D3
:108F8000D5720200489C04004C660020589C0400E6
:108F90006C9C0400F0ED00E040420F0048660020A9
:108FA000809C0400001000E028A8040088670020CE
:108FB00030B5484948488DB00CF056FB4549474804
:108FC00001220CF00DFD002840D0454B03AC93ED81
:108FD000000A062106A812F0AFFC06A9204612F0EE
:108FE000F5FB4049204612F065FD3F4B054693EDE9
:108FF000000A062109A812F09FFC09A9284612F0D0
:109000002DFD0146684612F0E1FB09A812F0D2FCE2
:10901000204612F0CFFC06A812F0CCFC029A009970
:109020002E480CF03BFB2D480CF094FD2F492046B8
:1090300012F0B2FB2E4804F073F988BB204612F000
:10904000B9FC684612F0B6FC0DB030BD03AC29493E
:10905000204612F0A1FB264804F062F920B9204610
:1090600012F0A8FC0DB030BD214609A812F0AEFBED
:10907000214909A812F01EFD014606A812F0A6FB20
:1090800009A812F097FCBDF8202006991B4801F0B2
:10909000D3FF06A812F08EFC204612F08BFCE1E70D
:1090A000214609A812F092FB134909A812F002FD0B
:1090B000014606A812F08AFB09A812F07BFCBDF855
:1090C000202006990D4801F0B7FF06A812F072FCA7
:1090D000B4E700BFB09B04009C860020D46500204C
:1090E000CC650020C09A0400D0650020009D0400DB
:1090F000FC6700201C9D040028A80400886700204D
:1091000070B52DED028B8AB0624901A812F044FBC4
:10911000614804F005F907AE002861D101A812F0FA
:1091200049FC4FF47A709FED5D8A5D4D12F012FE9E
:10913000F0EE488AC82428460CF016F9284678EE46
:10914000808A0CF05DF9052038EE008A12F002FEEC
:10915000013CF0D1DFED537A534D544C544968EE45
:10916000A78A28EE278A3046C5ED008A84ED008A5A
:1091700012F012FB484804F0D3F8002840F0828037
:10918000304612F017FC95ED000A062101A812F0F6
:10919000D3FB414804F0C4F800285AD101A812F0CA
:1091A00009FC4449304612F0F7FA3B4804F0B8F89D
:1091B000002847D1304612F0FDFB94ED000A06214D
:1091C00001A812F0B9FB344804F0AAF808BB01A8C2
:1091D00012F0F0FBFFF7ECFE0AB0BDEC028B70BDA5
:1091E00001A9304612F0F2FA3349304612F062FC1F
:1091F000014604A812F0EAFA304612F0DBFBBDF893
:10920000182004992D4801F017FF04A812F0D2FB92
:1092100084E701A9304612F0D9FA2749304612F006
:1092200049FC014604A812F0D1FA304612F0C2FB04
:10923000BDF818200499214801F0FEFE04A812F0A0
:10924000B9FBC4E7BDF8242007991C4801F0F4FEDF
:10925000B0E701A9304612F0B9FA1749304612F0CA
:1092600029FC014604A812F0B1FA304612F0A2FB24
:10927000BDF818200499114801F0DEFE04A812F090
:1092800099FB8BE7BDF8242007990C4801F0D4FE28
:1092900076E700BF389D0400FC6700200000000056
:1092A0004C6600200AD7A33BCC650020D065002087
:1092B000549D0400689D040028A8040088670020CD
:1092C0002DE9F0438DB0A049074603A812F064FAD7
:1092D0009E4804F025F809AC002840F0C38003A89C
:1092E00012F068FB4FF47A7012F034FD12F026FD94
:1092F0000025DFF88C9280462E4603E00BF05AFCE6
:10930000002850D112F01AFDA0EB0803B3F57A6FD4
:109310004846F3D3002D56D18D4E8E4935602046F8
:1093200012F03AFA894803F0FBFF002840F0B380BE
:10933000204612F03FFB31680A2203A812F0C8FA57
:10934000824803F0EDFF002873D103A812F032FB2E
:10935000814982480CF088F97F49814801220CF04C
:109360003FFB98B331680A22684612F0B1FA029ABC
:1093700000997B480CF092F979480CF0EBFB7949A5
:1093800003A812F009FA714803F0CAFF002840F060
:10939000898003A812F00EFB684612F00BFB1FBB7E
:1093A0000DB0BDE8F08348460BF00CFC07EE906A68
:1093B000F8EEE77A013537EE800AC82DFDEEC07A67
:1093C00017EE906A9ED196FBF5F5A5E7664903A8CE
:1093D00012F0E2F95D4803F0A3FF00287BD103A857
:1093E00012F0E8FA002FDBD0604D3268604B2A6043
:1093F0006049012220461A7012F0CEF9534803F05A
:109400008FFF002840F09980204612F0D3FA296897
:109410000A2203A812F05CFA4C4803F081FF0028EE
:1094200072D103A812F0C6FAFEF766FF0DB0BDE8D0
:10943000F08303A9204612F0C9F94F49204612F0E3
:1094400039FB014606A812F0C1F9204612F0B2FA23
:10945000BDF820200699494801F0EEFD06A812F05B
:10946000A9FA72E703A9204612F0B0F94249204652
:1094700012F020FB014606A812F0A8F9204612F0CF
:1094800099FABDF8202006993C4801F0D5FD06A8C0
:1094900012F090FA23E7BDF82C200999374801F023
:1094A000CBFD45E703A9204612F090F9324920464A
:1094B00012F000FB014606A812F088F9204612F0CF
:1094C00079FABDF8202006992C4801F0B5FD06A8D0
:1094D00012F070FA5DE703A9204612F077F92649E9
:1094E000204612F0E7FA014606A812F06FF920466E
:1094F00012F060FABDF820200699204801F09CFD8A
:1095000006A812F057FA6AE703A9204612F05EF99E
:109510001949204612F0CEFA014606A812F056F973
:10952000204612F047FABDF820200699134801F0B2
:1095300083FD06A812F03EFA73E7BDF82C200999C6
:109540000E4801F079FD5FE77C9D0400FC67002078
:10955000E06700209C9D0400409904009C86002048
:10956000A06600204C99040060990400C4650020A6
:10957000C8650020B09D040028A80400886700206A
:109580008066002070B5294D01238AB000202B7021
:10959000FFF796FEFFF7B4FD254B1B780BB9FEF7DE
:1095A0002DFF244A244B14681B68244907A8E41A99
:1095B00012F0F2F8224803F0B3FE04F30F0426B2CF
:1095C00098B907A812F0F6F9214601A80A2212F06C
:1095D0004BF91B4803F0A4FE70B901A812F0EAF998
:1095E000002330462B700AB070BDBDF824200799C7
:1095F000144801F021FDE4E701A907A812F0E6F8FC
:10960000114907A812F056FA014604A812F0DEF834
:1096100007A812F0CFF9BDF818200499094801F005
:109620000BFD04A812F0C6F9D7E700BF9C64002028
:10963000C8650020E0670020C4650020D09D0400BC
:10964000FC6700208867002028A804002DE9F0416D
:109650002DED028B8CB0B74903A8B0EE408A12F012
:109660009BF8B54803F05CFE002840F0218103A878
:1096700012F0A0F912F062FB0024B04F0646254616
:1096800041F2873804E00BF095FA002840F0E780BB
:1096900012F054FB831B43453846F4D9002C40F0AC
:1096A000EF809FEDA70AA74E28EE008A3568B5EE39
:1096B000C08AF1EE10FAA4EB050540F2E480002D1B
:1096C00000F0E18007EE905AF8EEE77A9E4F9F494E
:1096D00087EE887A09A887ED007A12F05DF896483F
:1096E00003F01EFE002840F0338209A812F062F950
:1096F00021460A2203A812F0EBF88F4803F010FE6F
:10970000002840F00C8203A812F054F9904909A8EF
:1097100012F042F8884803F003FE002840F0F88178
:1097200009A812F047F931680A2203A812F0D0F80C
:10973000814803F0F5FD002840F0D18103A812F024
:1097400039F9844909A812F027F87B4803F0E8FDAD
:10975000002840F0BD8109A812F02CF929460A2200
:1097600003A812F0B5F8744803F0DAFD002840F0C1
:10977000968103A812F01EF9774909A812F00CF897
:109780006D4803F0CDFD002840F0828109A812F059
:1097900011F9B0EE480A062103A812F0CDF8664888
:1097A00003F0BEFD002840F05A8103A812F002F930
:1097B0006A4909A811F0F0FF5F4803F0B1FD0028E5
:1097C00040F0468109A812F0F5F897ED000A06214D
:1097D00003A812F0B1F8584803F0A2FD002840F0A9
:1097E0001E8103A812F0E6F85D4903A811F0D4FF2A
:1097F000514803F095FD002840F0F88003A812F0CE
:10980000D9F8584958480BF02FFF564957480122BC
:109810000CF0E6F8002864D097ED000A06216846AF
:1098200012F08AF8029A009950480BF037FF4F481F
:109830000CF090F94E4903A811F0AEFF3E4803F03A
:109840006FFD002840F0A08003A812F0B3F868462E
:1098500012F0B0F80CB0BDEC028BBDE8F0813846D8
:109860000BF0B0F907EE905AF8EEE77A013437EED4
:10987000800AC82CFDEEC07A17EE905A7FF408AF2C
:1098800095FBF4F40DE73B4903A811F085FF2A4846
:1098900003F046FD002840F0908003A812F08AF8FB
:1098A000354B00221A700CB0BDEC028BBDE8F08184
:1098B00003A909A811F08AFF304909A812F0FAF8A3
:1098C000014606A811F082FF09A812F073F8BDF84E
:1098D000202006992A4801F0AFFB06A812F06AF88A
:1098E000C5E6284903A811F057FF134803F018FDF7
:1098F00038B903A812F05EF80CB0BDEC028BBDE8DD
:10990000F08103A909A811F061FF1C4909A812F010
:10991000D1F8014606A811F059FF09A812F04AF83B
:10992000BDF820200699164801F086FB06A812F023
:1099300041F8DEE7E89D0400FC6700208066002017
:109940000AE81C41E067002010600020289E040007
:109950009C9D0400389E0400489E0400549E040010
:10996000709E0400609A04009C86002038640020E9
:10997000C89C0400049E04009C64002028A80400E5
:1099800088670020E49C040003A909A811F01EFFC9
:10999000734909A812F08EF8014606A811F016FFC7
:1099A00009A812F007F8BDF8202006996D4801F0CB
:1099B00043FB06A811F0FEFF46E703A909A811F032
:1099C00005FF674909A812F075F8014606A811F0CD
:1099D000FDFE09A811F0EEFFBDF8202006996148B0
:1099E00001F02AFB06A811F0E5FF56E703A909A834
:1099F00011F0ECFE5A4909A812F05CF8014606A8DD
:109A000011F0E4FE09A811F0D5FFBDF82020069959
:109A1000544801F011FB06A811F0CCFFEEE603A9B3
:109A200009A811F0D3FE4E4909A812F043F80146E7
:109A300006A811F0CBFE09A811F0BCFFBDF820204C
:109A40000699484801F0F8FA06A811F0B3FFC8E6F5
:109A5000BDF82C200999434801F0EEFAB2E603A9BB
:109A600009A811F0B3FE3E4909A812F023F80146F7
:109A700006A811F0ABFE09A811F09CFFBDF820204C
:109A80000699384801F0D8FA06A811F093FF8CE641
:109A9000BDF82C200999334801F0CEFA76E603A9E7
:109AA00009A811F093FE2E4909A812F003F8014607
:109AB00006A811F08BFE09A811F07CFFBDF820204C
:109AC0000699284801F0B8FA06A811F073FF50E68D
:109AD000BDF82C200999234801F0AEFA3BE603A912
:109AE00009A811F073FE1E4909A811F0E3FF014611
:109AF00006A811F06BFE09A811F05CFFBDF820204C
:109B00000699184801F098FA06A811F053FF15E6D7
:109B1000BDF82C200999134801F08EFA00E603A93C
:109B200009A811F053FE0E4909A811F0C3FF014620
:109B300006A811F04BFE09A811F03CFFBDF820204B
:109B40000699084801F078FA06A811F033FFDAE523
:109B5000BDF82C200999034801F06EFAC5E500BF55
:109B600028A804008867002030B58DB0044612F0A4
:109B700093F8A14909A811F00FFEA04803F0D0FB0B
:109B8000002840F0968009A811F014FF9B4803F0CC
:109B9000C7FB002874D19A4909A811F0FDFD09A955
:109BA000204611F0B7FF054609A811F003FF2DB1BB
:109BB000B2EE040AFFF74AFD0DB030BD914909A885
:109BC00011F0EAFD09A9204611F0A4FF054609A8F5
:109BD00011F0F0FE6DB30120FFF772FBFFF790FA72
:109BE000894909A811F0D8FD844803F099FB0028A1
:109BF00040F0BB8009A811F0DDFE844B1B78002BE0
:109C000000F09780824A834B11681B6803ACC91A25
:109C100001F30F0120460A2211F026FE774803F0D7
:109C20007FFB002840F08880204611F0C3FE0DB075
:109C300030BD794909A811F0AFFD09A9204611F0FE
:109C40008BFF054609A811F0B5FE002D38D0A3689A
:109C500021460122684611F0A3FF684612F01CF865
:109C6000684612F043F8B5EEC00AF1EE10FA40F380
:109C70008380FFF7EBFC684611F09CFE0DB030BD11
:109C8000214609A811F0A2FD644909A811F012FFAC
:109C9000014606A811F09AFD09A811F08BFEBDF847
:109CA000202006995E4801F0C7F906A811F082FE4F
:109CB00071E7BDF82C200999594801F0BDF962E718
:109CC000584909A811F068FD09A9204611F022FFA2
:109CD000054609A811F06EFE002D7AD1524909A857
:109CE00011F05AFD454803F01BFB00286AD109A872
:109CF00011F060FE414803F013FB00283FF45CAF15
:109D0000214609A811F062FD444909A811F0D2FECC
:109D1000014606A811F05AFD09A811F04BFEBDF846
:109D2000202006993E4801F087F906A811F042FE6E
:109D300042E7FEF763FB65E7214609A811F046FDFF
:109D4000364909A811F0B6FE014606A811F03EFDFD
:109D500009A811F02FFEBDF820200699304801F027
:109D60006BF906A811F026FE5EE7BDF82C200999D4
:109D70002B4801F061F93DE703AC2C49204611F076
:109D80000BFD1E4803F0CCFA18B9204611F012FE64
:109D900071E7214609A811F019FD204909A811F021
:109DA00089FE014606A811F011FD09A811F002FE76
:109DB000BDF8202006991A4801F03EF906A811F0D6
:109DC000F9FDE2E7BDF82C200999154801F034F9B6
:109DD0008DE74FF08043A822C3F81C25BFF34F8FB7
:109DE0001349144BCA6802F4E0621343CB60BFF31B
:109DF0004F8F00BFFDE700BF8C9E0400FC67002072
:109E0000A49E0400D0A20400D09D0400C8650020D8
:109E1000E0670020C4650020289B040028A80400F7
:109E200088670020BC9E0400C09E0400A89E040019
:109E300000ED00E00400FA0570B51B4E1B4801233D
:109E400086B00A21337011F09BFE041E1FDB174DF4
:109E5000234600222946684611F0A2FE621C00211A
:109E6000284611F0CBFE694603A811F0AFFC03A809
:109E7000FFF77AFE03A811F09DFD0A21284611F094
:109E80007FFE0446684611F095FD002CE0DA0023C1
:109E90000A210648337011F073FE054BC043C00F12
:109EA000187006B070BD00BF9C64002008670020D9
:109EB000146700200000000070B5BB4B2DED028B35
:109EC0001B788AB00BB1FFF7B7FFB84A137823B3FA
:109ED000B74BB8491C780D88042C4FF00001117065
:109EE00045D0032C00F03681052C00F043810C2C6A
:109EF00000F0128120220223AF488DF81D40294630
:109F00008DF81C208DF81E3001F0A8F828B1AA4861
:109F10002946032307AA01F0D1F8A84B1A78002A92
:109F200072D1A74BDB68D90103D5A64B1A68D207BB
:109F30001AD413F027F9A44BA0FB0301830A43EAC8
:109F40008153A249A24A09685B1A934204D9A14BE2
:109F50001B78002B00F0CF80FDF706FBFDF7B6F96C
:109F60000AB0BDEC028B70BD5B689B09E9E79A4AB9
:109F70001288022A40F26F819A785B788DF802107D
:109F800053EA02234FF48461ADF8001000F0E08042
:109F900007EE903A9FED917A914A924E9249138042
:109FA000F8EE677A07A867EE877AC6ED007A11F0B7
:109FB000F3FB8E4803F0B4F9002840F07A8107A83B
:109FC00001AC11F0F7FC96ED000A2046042111F0D7
:109FD000B3FC864803F0A4F9002840F051812046E4
:109FE00011F0E8FCFEF706F9012373488DF8023002
:109FF000294601F033F800288FD0294603236A460A
:10A000006D4801F05BF888E7002279481A700AF081
:10A01000D9FD6B4BDB68DC01B0EE408A06D5694B9D
:10A020001A68D00702D55C68A40907E013F0AAF803
:10A03000654BA0FB0301840A44EA81546D480BF090
:10A04000DFF96D4BDFED6D7A93ED007AF0EEC76AC4
:10A05000F4EEE76AF1EE10FAF0EE408A3BDD614A79
:10A06000674BD2ED006A1B686649BDEEC88AD1ED28
:10A07000007A18EE102AD31A08EE103A70EE677ABA
:10A08000B8EEC88A17EE900AC8EE077A27EEA68ABD
:10A0900019F008FF42A3D3E9002319F05BFF1AF07F
:10A0A000F3F978EE087A06EE900A66EEA77A9FED4D
:10A0B000567AF0EEE77AF4EEC77AF1EE10FA0AD8A3
:10A0C0005249534AD1ED007A136837EE888A01333A
:10A0D00081ED008A13604F4B2046B0EE680AC3ED55
:10A0E000008AFDF7D5FD00283FF41BAF4A4B1868E6
:10A0F000FDF722FB15E701AC4849204611F04CFB67
:10A100003A4803F00DF9002840F08C80204611F009
:10A1100051FCFDF711FD1FE7FFF734FA4FF44262DF
:10A12000041201238DF81F00294623488DF8204092
:10A13000ADF81C208DF81E3000F090FF00283FF491
:10A14000ECAE2946052307AA1B4800F0B7FFE4E65A
:10A1500003234AE7324B18480793294600F07EFF55
:10A1600000283FF4DAAE2946042307AA124800F07B
:10A17000A5FFD2E61A4B10481B888DF81F304FF40C
:10A18000A4661B0A012229468DF82030ADF81C6018
:10A190008DF81E2000F062FF00283FF4BEAE68E09C
:10A1A000399D52A246DF913F14670020B86300201A
:10A1B000A463002004600020A06400203866002012
:10A1C000F0ED00E0001000E040420F004866002083
:10A1D000008793039C640020A06300206F12033A61
:10A1E000086000200C600020C0990400FC6700207B
:10A1F000806600204C66002010600020BD37863548
:10A20000E0670020D06500200000FA449C66002032
:10A2100004670020446600207C660020D89E04006D
:10A2200020030105214607A811F0D0FA244907A808
:10A2300011F040FC014604A811F0C8FA07A811F07B
:10A24000B9FBBDF8182004991E4800F0F5FE04A8DB
:10A2500011F0B0FB5AE74FF4846303241A48ADF8B9
:10A260001C3029468DF81E4000F0F8FE00283FF40F
:10A2700054AE2346294607AA134800F01FFF4CE6B8
:10A28000214607A811F0A2FA0D4907A811F012FC07
:10A29000014604A811F09AFA07A811F08BFBBDF84B
:10A2A00018200499074800F0C7FE04A811F082FBAB
:10A2B00095E6BDF824200799024800F0BDFE7EE631
:10A2C00028A8040088670020A064002072DF70477F
:10A2D00073DF704774DF704777DF704738B5054626
:10A2E00008460C4602F032FB102803D080280ED01E
:10A2F000012038BDEB7FA2881B2B0EDCE918032060
:10A30000E85448704A80EB7F0433EB77F0E7A368AA
:10A31000002BEDD0E97F0D2901DD002038BD6A1842
:10A32000112068540721517058681C689968DB68CF
:10A33000C2F80E30C2F80600C2F80240C2F80A1095
:10A34000EB7F1233EB77012038BD00BF0022C277CC
:10A350000270704730B5D1E9042485B0CD68074B51
:10A3600000936946CDE902240195FFF7B7FF044643
:10A37000684602F0B5FA204605B030BD489F04009B
:10A38000F0B589B0064620221348694602F03CFF2A
:10A39000F37FC2181D2A0CDDC3F11D04E4B2E218DC
:10A3A0001D2A4FF00005D8BF082705DD284609B053
:10A3B000F0BD044601250927F218601CF0546946D7
:10A3C0005770901C22461AF0EDFAF27F02321444C4
:10A3D0002846F47709B0F0BDFC67002010B50446AC
:10A3E000094802F06FFFE37F1C2B01DD002010BD48
:10A3F000E2180221E1540A2390705370E37F033383
:10A40000E377012010BD00BFFC670020C27F1C2A3B
:10A4100001DD0020704710B403469C1802209854B8
:10A420000120A1706070DA7F0332DA775DF8044BA7
:10A43000704700BF10B4084A084C09490262002264
:10A44000C0E90A41C0E90C225DF8044B0270C277F2
:10A4500042628263704700BFFF0101002000F400E8
:10A4600020001E00C18570470185818542857047A7
:10A4700080F82210704700BFF0B5154605EB850344
:10A48000274A89B0044603EB830300200E469B0055
:10A4900011680290CDE90460ADF8143094F82130D1
:10A4A0008DF80830CB07CDE90600039009D41D498B
:10A4B0001D4BC87FE77F988101201C6099609F80B9
:10A4C0001060194902AA04F12000FFF7FFFE10B145
:10A4D000002009B0F0BD94F820101448019102F05A
:10A4E000F1FE019902460120FFF7F6FE0028EFD1A8
:10A4F00094F820000121FFF7EBFE0028E8D10B487B
:10A5000002F050FF628EA68595424FF0010094BF85
:10A51000521B921A628684F8230009B0F0BD00BF76
:10A52000E4670020786E0020E8670020FC670020C8
:10A53000F0B5002361F30F032D4D044661F31F4373
:10A5400089B00363FA21284602F0C4FEE68D29494A
:10A55000278D0868049706EB860303EB830300222C
:10A560009B000592ADF8143094F8213002928DF8DA
:10A570000830C307CDE9062203920BD41E4BE27FBD
:10A5800095F89B069A8005F27C6501221C609D600F
:10A5900098810A60184902AA04F12000FFF796FE8C
:10A5A00010B1002009B0F0BD94F8201010480191BE
:10A5B00002F088FE019902460120FFF78DFE002877
:10A5C000EFD194F820000121FFF782FE0028E8D1A6
:10A5D000074802F0E7FE638EA7859E424FF0010018
:10A5E00094BF9B1BDB1A638684F8230009B0F0BD7F
:10A5F000FC670020E4670020E867002010B50446EF
:10A6000090F82000FFF766FE08B1002010BD84F826
:10A610002300024802F0DAFE012010BDFC67002092
:10A6200030B50B888D88112B85B0044605D0262BBC
:10A6300033D0102B25D005B030BD436AEB40DB078B
:10A64000F9D52E4801F0FEF90028F4D1636A94F898
:10A650002310012202FA05F523EA050363620029AB
:10A66000E9D194F82230002BE5D0238E234863866D
:10A67000FA2102F02FFEE28D218D2046FFF7FCFE2D
:10A68000D9E7CB7B012BD6D1426A03FA05F51543F6
:10A690000023456280F82330CDE70B7A012BCAD125
:10A6A000002380F823304FF4FA71144802F012FEB0
:10A6B000238E5BB1658E95B1A36B0BB19847658E08
:10A6C000618D2A462046FFF7D7FEB4E7A36B03B19E
:10A6D0009847618D00222046FFF7CEFEABE7074882
:10A6E00002F074FE626B002AA5D0009503AB2946E8
:10A6F0002846039514F026FC9DE700BFFC67002068
:10A7000075DF704710B44FF010144FF44801002269
:10A71000C0E90041C0E902225DF8044B704700BF68
:10A72000014800F095BF00BFEC6E0020F8B5002591
:10A730000D4F2E4601E0142D14D0A9B2384602F078
:10A7400019FE013504460028F5D000F01BFE002854
:10A75000F1D0204600F020FE022804BF0136F6B2F8
:10A76000142DEAD13046F8BDFC67002070B58E8804
:10A770001B480C4694B0314602F0FCFD23881A2B8E
:10A7800005D01F2B1CD0102B0FD014B070BD054668
:10A7900000F0FAFD0028F8D0284600F0F7FD002868
:10A7A000F3D1284600F058FEEFE7694600F03CFE82
:10A7B0000028EAD06A4631460A4801F0F1FCE4E795
:10A7C00054F8080F61686B4603C33046BDF800308B
:10A7D000ADF802306946FFF793FF14B070BD00BFBB
:10A7E000FC6700201C680020AADF7047ABDF7047C1
:10A7F000ACDF7047ADDF7047AEDF7047B0DF70474A
:10A8000010B5044B044640F8043B02F069F82046BA
:10A8100010BD00BF009F040010B5054B044640F872
:10A82000043B02F05DF8204613F05EFE204610BDAA
:10A83000009F040070B57B4B04461B68836196B093
:10A84000043002F093F894F82E30A06913F032022D
:10A8500008BF84F82F2013F00C0308BF84F83030B1
:10A860000DF10102694602F031F894F82F209DF8AD
:10A87000010015070DD09DF8001002F00F0301F044
:10A880000F059D424FEA12126DD243EA021284F87C
:10A890002F2094F8303019070BD003F00F0100F08F
:10A8A0000F058D424FEA131369D241EA031384F86E
:10A8B000303094F82E1011F0300340F096800FAD38
:10A8C0000F93C5E90133C5E903338DF83C10AB6143
:10A8D0000021ADF809109DF80A10206A1493012395
:10A8E00063F342018DF808208DF80A1008B103784F
:10A8F00073BB94F8263013B104F12603129394F835
:10A9000031200023D2070893079358BFE38AADF89C
:10A910001C3004F1080004F12F01CDE9050154BFFA
:10A920001846E08AADF82000294604F13203E569B3
:10A93000099505AA0020FFF757FF054628B994F8A6
:10A94000253043BB237D002B64D0284616B070BD54
:10A9500010901AF0A3FF02AB80B2ADF84400ADF83E
:10A9600046001393C5E74FEA111101D191428CD3F0
:10A970000A462B4643EA021284F82F2089E74FEA61
:10A98000101001D1984290D30346294641EA03139F
:10A9900084F830308DE7ADF80D009DF80E2094F866
:10A9A0002F600C90012363F3420242F608118DF8E8
:10A9B0000E208DF8123004AA0223ADF8101003A95E
:10A9C0000D90ADF83030ADF834300A9204F1240324
:10A9D0000B910DF102020AA98DF80C600E93FFF79E
:10A9E00005FF0028AED00546AFE70F4B8DF80520D8
:10A9F0000FAD1B788DF80430022000230F938DF8E3
:10AA00000600C5E90133C5E90333AB618DF83C109D
:10AA100001AB5DE72146054800F0D6FF284616B099
:10AA200070BD00BFF8670020F49E04003C6C00205D
:10AA30002DE9F0410B888E88502B8AB00C460546D4
:10AA400009D0512B04D18B79012B19D0022B26D0A0
:10AA50000AB0BDE8F081CB88428E9A4235D0EA8EAA
:10AA60009A42F5D16B6D002BF2D095F84420648AA0
:10AA7000920700F18A802246294630469847E7E748
:10AA8000836C002BE4D090F84420520701F10807B2
:10AA90006CD43A46294630469847A379D6E7A27B3C
:10AAA000042A46D0062A20D0012AD1D1EB6C002BF3
:10AAB000CED095F84420170704F1080400F1A580D2
:10AAC0002246294630469847C2E7076D002FC6D078
:10AAD00090F84430D90768D404F11208238A42461A
:10AAE00029463046B847E388B9E7EA6B002AAFD079
:10AAF000002202A93046CDE90222CDE90422ADF8B8
:10AB00000C208DF80830FFF779FE2C6D54B195F8C4
:10AB10004430D80700F19280B5F84230EA6B3046F5
:10AB20002946A047E86B11F04BF90023C5E90F3324
:10AB30008EE7E86B002878D0B5F84010278A628A43
:10AB400007EB020C00234FF0020E8C45CDE90633D3
:10AB5000CDE908338DF818E039DD40F20913ADF87E
:10AB60001C3006A93046FFF749FE71E703211A465B
:10AB7000009106AB08213846CDE90665089714F028
:10AB8000E1F9002889D1AB6C83E7032000211A4644
:10AB9000009006AB0846CDE90665089414F0D2F99A
:10ABA00000287FF455AF6B6D65E7218A069604F1A6
:10ABB0001208042300933A46404606ABCDE90881CB
:10ABC000079514F0BFF900288DD12F6D86E79DF809
:10ABD0001EC0ADF81C3004F114014CF001033844E0
:10ABE000ADF822208DF81E300991ADF8207019F0D3
:10ABF000D9FE238A618AB5F842200B449BB2934266
:10AC000038BF1346A5F84230ABE703211A4600913E
:10AC100006AB0E212046CDE90665089414F092F9A2
:10AC200000287FF415AFEB6C4AE74FF4806011F019
:10AC3000ADF84FF48061C5E90F017FE7E86BB5F827
:10AC40004210069604230093224606ABCDE9075036
:10AC5000099114F077F900287FF464AF2C6D5BE75D
:10AC60002DE9F04F0F464FF6FF718F4289B006462F
:10AC700015461C4627D0F18A96F82E308C4228BF04
:10AC80000C469B0615D40DF1100B8C4228BF0C46C8
:10AC90004FF00008718EADF810405A464FF6FF7025
:10ACA0000595ADF81280FFF7A3FD404609B0BDE859
:10ACB000F08F3648394602F045FB804608B1F18EE8
:10ACC00031B9F18ADFE7314802F048FB0746D2E7A5
:10ACD000002002230DF1100BADF81200ADF810307A
:10ACE0005A460DF10E0338460593FFF783FD43F2F4
:10ACF0000143984247D008B9BDF80E0000F00200A9
:10AD0000002840D02148394602F034FB824688B3FF
:10AD100000F044FB033883B2002CC6D0CDF8048089
:10AD20004FF00009984608E000F0A0FB10B3BDF812
:10AD30000E30E41AA4B21D4414B34FF00200A04533
:10AD40008DF812000DF10E00738EADF810304246F2
:10AD5000CDE9060528BF224659463846CDF813905E
:10AD60008DF81790ADF80E20FFF746FD03465046CC
:10AD7000002BD9D04FF00008404609B0BDE8F08F55
:10AD8000DDF8048091E7F18A7FE700BFFC670020CF
:10AD90002DE9F04F0F464FF6FF718F4289B00646FE
:10ADA00015461C4626D0F18A96F82E308C4228BFD4
:10ADB0000C46DB0615D40DF1100B8C4228BF0C4657
:10ADC0004FF00008718EADF810405A464FF6FF70F4
:10ADD0000595ADF81280FFF70BFD404609B0BDE8C0
:10ADE000F08F3948394602F0ADFA08B1F18E31B929
:10ADF000F18AE0E7344802F0B1FA0746D3E70020D1
:10AE000002230DF1100BADF81200ADF810305A46C8
:10AE10000DF10E0338460593FFF7ECFC43F20143B6
:10AE200098424FD000284AD19DF80E8008F00108C2
:10AE3000B8F1000F46D02448394602F09BFA82460A
:10AE4000A0B300F0ABFA033883B2002CC5D0CDF824
:10AE500004804FF00009984605E0BDF80E30E41A72
:10AE6000A4B21D4444B3504600F0ACFAA0450346DA
:10AE70004246594628BF22463846BBB1ADF80E209F
:10AE80004FF00102738E8DF812200DF10E02CDE904
:10AE90000625CDF813908DF81790ADF81030FFF718
:10AEA000ABFC0028D9D0504600F096FA4FF00008CD
:10AEB000404609B0BDE8F08FDDF804808DE700F072
:10AEC0000108B5E7F18A78E7FC67002070B44E68A6
:10AED000164A86600260D1E90262154B154D1C7856
:10AEE00045600261142500220321C0E90F22C0E958
:10AEF0001222C0E91422C660C58280F8311080F8A1
:10AF000044200275826102628284C0F82620C0F863
:10AF10002A2080F82E20C26142864263028780F890
:10AF20002F4080F8304070BC704700BF009F040085
:10AF3000F49E0400489F040080F82E10704700BF64
:10AF4000C182704741B190F83130C182002262F372
:10AF5000000380F83130704790F83130012262F3FD
:10AF6000000380F83130704780F82F1080F83020CF
:10AF7000704700BF90F84430016562F3000380F829
:10AF80004430704751F8322F026049684160704781
:10AF900030B5C48A83B0944223460D4628BF134679
:10AFA000418E019500246A464FF6FF70ADF80030DF
:10AFB000ADF80240FFF71CFC18B9BDF8000003B063
:10AFC00030BD204603B030BD30B5044685B01948C9
:10AFD00002F0C4F994F82E3013F0100302D1184691
:10AFE00005B030BD05460146124802F0ABF9002815
:10AFF000F6D0E18E11B9084605B030BD0DF106035B
:10B0000028460024022502AA0393ADF80A40ADF8B1
:10B010000850FFF7EFFB43F20143984205D030B9E7
:10B020009DF8063003F00100DAE72046D8E700F08B
:10B030000100D5E7FC67002010B490F82E4014F012
:10B04000100407D013465DF8044B0A464FF6FF7113
:10B05000FFF79EBE20465DF8044B704790F82E30F7
:10B0600013F0200301D11846704730B5044685B06F
:10B0700011480D4602F066F910B1E18E11B908468B
:10B0800005B030BD0DF1060328460024022502AAB2
:10B090000393ADF80A40ADF80850FFF7ABFB43F25D
:10B0A0000143984206D008B9BDF80600C0F340003D
:10B0B00005B030BD2046E3E7FC67002010B490F8EF
:10B0C0002E4014F0200403D05DF8044BFFF7C8BDF8
:10B0D00020465DF8044B7047A1DF7047A3DF70473F
:10B0E000A4DF704700238383704700BF006A00F02D
:10B0F000E3B800BF808B70472DE9F0410B88CE8804
:10B10000382B86B00C46054606D0392B66D0362B38
:10B1100043D006B0BDE8F08100F12407002E36D1FF
:10B120000A8A3846314602F0E5F994F80C80B8F105
:10B13000010F2CD0B8F1040FEBD1286A00F0BCF855
:10B1400001465C4802F016F900F028F92A8E05380D
:10B1500083B2934228BF1346002B00F09A80218AC5
:10B16000E289286AAC8B8DF80D600A44E96A059182
:10B170008DF80C80ADF81230ADF81020ADF80E400F
:10B1800000F09AF803A9FFF7A9FF0028C1D03846BC
:10B1900002F0C8F906B0BDE8F081006A00F08CF852
:10B1A0000146444802F0E6F800F0F8F807466EBBA6
:10B1B00005F12406E289304604F1100102F09AF903
:10B1C0002B8E2BB1F81EE38980B20138834255DA09
:10B1D000304602F0A7F906B0BDE8F0810B7B012BE9
:10B1E0001AD0022B95D1836B002B92D090F83C2083
:10B1F0008F8892071FD401F11006E2893146284654
:10B20000984761893846FFF76BFF82E705F124070D
:10B21000384602F087F9BDE7436B002B3FF479AF66
:10B2200090F83C20D10717D404F11006E28931468A
:10B23000284698476DE7C989039004F1100603205A
:10B240001A46009003AB3046CDE9046113F07AFE54
:10B250000028D6D1AB6BD0E7E189039004F110064A
:10B2600003201A46009003AB3046CDE9046113F089
:10B2700069FE00287FF44DAF6B6BD7E7286A00F0BA
:10B280001BF86A8EA98B92B2FFF726FF00289FD188
:10B290003FE7AA8B286AADF80E2040F20511ADF801
:10B2A0000C10CDE9043300F007F803A9FFF716FFEF
:10B2B0006DE700BFFC670020808870478FDF704714
:10B2C00090DF7047B1DF7047B5DF704710B5074BAF
:10B2D00003600446806A11F0C7FBE06A11F0C4FB0A
:10B2E000206B08B111F0C0FB204610BD189F040070
:10B2F00010B5094B03600446806A11F0B5FBE06AA3
:10B3000011F0B2FB206B08B111F0AEFB204613F038
:10B31000EBF8204610BD00BF189F040070B504462E
:10B320000D4692E80300A5800E0CA061A183144D88
:10B33000A67717201B2156892560E0809589D08942
:10B34000E181D1796581012222752274A081617425
:10B350001846194626819DF8105010F0DBFD29464D
:10B36000A062284610F0D6FD4FF4885100234FF616
:10B37000FF72E182E062628223636375204670BDE2
:10B38000189F0400007D7047407D7047C07D1138D4
:10B3900018BF0120704700BF407C7047C0887047CD
:10B3A000008970474B7D10B44BB11F310C688A88FF
:10B3B0008B79046082805DF8044B8371704718318B
:10B3C000F4E700BF08B56621806A11F0C5F90038BE
:10B3D00018BF012008BD00BF08B500231A46194652
:10B3E000806A10F0C9FD003818BF012008BD00BFF9
:10B3F000818800F11F02407C02F0DAB838B50A46B5
:10B4000005460C468188407C02F0BEF821460120AA
:10B4100051F8483FC5F81F308B888A7985F8252078
:10B42000A5F82330687538BD38B50A4604460D4680
:10B4300000F11801407C02F0F1F8607550B1294626
:10B4400051F8483FC4F81F308B888A7984F825204A
:10B45000A4F8233038BD00BF10B5447D24B100F1FD
:10B460001F01407C02F0B8F8204610BD38B5032219
:10B4700004460021012010F00BFD00254FF0FF31A4
:10B480002063A57511F068F9206B11F0EDFAA07D2D
:10B49000256338BD70B50B88113B82B00C4605465C
:10B4A000462B2BD8DFE803F0383B2A2A2A2A2A2AFF
:10B4B0002A422A2A2A2A2A2A50585E642A2A2A2A12
:10B4C0002A2A2A2A2A2A2A2A2A2A2A2A2A2A2A2ADC
:10B4D0002A672A942A2A2A2A2A2A2A2A2A2A2A2A25
:10B4E0002A2A2A2A2A2A2A2A2A246A2A752C840005
:10B4F0000023A8881A461946FFF7E4FE02B070BD83
:10B500008B79002BFAD1006BAB750028F6D01A4668
:10B51000194610F031FDF1E700230375EEE74B8982
:10B5200003818B894381CB898381E7E70B7AC375DC
:10B53000112BE3D0818800F11F02407C02F026F934
:10B5400003460028DAD1D4E7002301A98088ADF8AA
:10B550000430FFF7B3FED1E70B7A002BCED14B7A44
:10B560000374CBE7002211468088FFF7A9FEC5E7E8
:10B570000B89C381C2E74B89C380BFE7006B0123FE
:10B58000AB750028BAD000231A46194610F0F4FC17
:10B59000B4E7417C164801F0E5FEE3880146994294
:10B5A00028BF194689B2A888E980FFF78DFEA5E774
:10B5B0008B79002BA2D0002600231A461946A86AD0
:10B5C00010F0DAFC0136A279F3B29A42F4D895E78A
:10B5D0008B7A002B92D0002600231A461946E86A7F
:10B5E00010F0CAFC0136A27AF3B29A42F4D885E789
:10B5F000FC67002070B58AB086880B4606A84FF419
:10B600002851144605934FF6FF7501F071F901209A
:10B61000CDE90105059B0094314606AA044800F0D7
:10B620006FF8044606A801F05BF920460AB070BD29
:10B630003C6C002010B50446043001F0F7FE034BCB
:10B64000236000232375204610BD00BF0100FFFFCB
:10B65000017D01B1704710B50446043001F0F0FEE1
:10B660000123237510BD00BF007D70470B88322B6E
:10B6700010B504D0332B17D0302B08D010BDCB8899
:10B68000DBB1041D2046BDE8104001F04BBFCB8864
:10B69000041D002BF6D14B89002BF3D00A31204634
:10B6A0000A2201F027FFEDE7CB88002BE9D14A8978
:10B6B000002AE6D002EB420204E04A89002AE0D0E8
:10B6C00002EB82025200041D023292B20A3120467D
:10B6D00001F010FFD6E700BFA0DF704710B50446A9
:10B6E00000F5F87001F0A2FE2046F822002119F0C2
:10B6F00081F9F822A018002119F07CF9204610BD2C
:10B700002DE9F04782B00546BDF82C60BDF8304009
:10B710002048ADF80460BDF828A0ADF8064090467A
:10B7200099460F4601F026FE05F5F875064603E03A
:10B73000FFF736FE10F00EFB284601F0D9FE044656
:10B740003046002CF4D10121284601F079FE524602
:10B750004946284601F090FE08F10401384601AA46
:10B76000FFF7BAFF30B1284601F074FE204602B060
:10B77000BDE8F0874FF4FA71284601F083FE20EA15
:10B78000E074284601F066FEA4B2204602B0BDE88F
:10B79000F08700BFFC6700202DE9F04F8F880D88EF
:10B7A00085B0884604463946864801F0E3FDA5F198
:10B7B0001003012B814640F2908094F854203AB354
:10B7C000002633461633502D54F823A069D0512D4E
:10B7D0001AD198F80630B8F808B0022B53D0BBF154
:10B7E000000F11D051466846FFF7CCFBBDF8003082
:10B7F0005B4559D0514602A8FFF7C4FBBDF80C3099
:10B800005B4551D094F854200136F3B29342D9D31A
:10B8100094F84C31002B00F0D18004F5A679002675
:10B8200004E094F84C310136B34220DD59F8040F9E
:10B83000FFF75CFCB842F4D1382D03D0392D01D08C
:10B84000362DEED1B8F80AA0BAF1000FE9D0D9F838
:10B8500000B05846FFF74EFC5045E2D158464146ED
:10B86000FFF74AFC94F84C310136B342DEDC112D6F
:10B8700055D0352D04D1B8F80A30002B40F08F8018
:10B8800005B0BDE8F08F98F80E30062BA7D1DAF896
:10B8900000305046DB68414698474846FFF776FD42
:10B8A000B0E7B8F806B09AE7DAF800305046DB683F
:10B8B000414698474846FFF769FD0028A2D0502D21
:10B8C000A0D1514602A8FFF75DFBBDF80C305B45E7
:10B8D00098D14846FFF78CFD94E72378002B3FF47E
:10B8E0006CAF0026112D33460CD004EB8303394690
:10B8F000586803685B68984701362278F3B29A4229
:10B90000F3D85AE704EB83033946586803681B6889
:10B91000984701362278F3B29A42F3D84DE7D3B173
:10B920000026334605E094F84C210136F3B29A42E2
:10B9300011D904EB8305D5F85001FFF7D7FBB842C6
:10B94000F1D1D5F85001FFF7CDFB013694F84C2129
:10B95000F3B29A42EDD894F8F820002A90D000254E
:10B960002B4604EB8303D3F8FC008388BB420AD048
:10B970000135EBB2934283D204EB8303D3F8FC008E
:10B980008388BB42F4D103681B689847013594F85B
:10B99000F820EBB29342E4D305B0BDE8F08F04F594
:10B9A000F874B8F80C20204608F1100101F0A2FD4F
:10B9B000204605B0BDE8F04F01F0B4BD112D7FF475
:10B9C00058AFC8E7FC67002090F85420272A0CD80D
:10B9D00010B4034602F11604013280F8542043F8F3
:10B9E000241001205DF8044B70470020704700BF11
:10B9F0000378132B06D800EB830201330370012078
:10BA0000516070470020704778DF70477ADF7047D9
:10BA1000054A034692E80300002283E80300C3E9D5
:10BA200002221846704700BF209F040008B5FFF7A8
:10BA3000EDFF08B1002008BDFFF7E6FFB0FA80F087
:10BA4000400908BDF8B500250D4F2E4601E0142D24
:10BA500014D0A9B2384601F08DFC01350446002807
:10BA6000F5D0FFF78FFC0028F1D02046FFF794FCBB
:10BA7000012804BF0136F6B2142DEAD13046F8BDD4
:10BA8000FC67002008B501804280FFF7BFFFB0FAD5
:10BA900080F0400908BD00BF08B58180FFF7B6FF00
:10BAA000B0FA80F0400908BD08B5C180FFF7AEFFCD
:10BAB000B0FA80F0400908BD704700BF8ADF7047C8
:10BAC00030B40D4CC4621F25002250248584A0256B
:10BAD000C0E91122C0E90F22A0F84650A0F8484062
:10BAE000006230BC8262028680F838204263C26401
:10BAF000A0F85020704700BF000180002DE9F04FF2
:10BB000010468DB016460C4600F020FFC5B2102D31
:10BB10004FD0B66807220623A16994F81C900191C2
:10BB20008DF80D208DF80C30ED080DF10C080DF19D
:10BB30000E0A0027B9F1010F0A97CDE90477CDE984
:10BB40000677CDE90877CDF82B700ED998F800006C
:10BB500001994B464A7882420FD00A78D443234455
:10BB6000013213F0FF031144F4D108F10108C2457A
:10BB7000E0D100200DB0BDE8F08F11F8024B013C80
:10BB8000E4B2224604A818F00DFF0DF1100B1CB909
:10BB9000EBE714F0FF04E8D058462A46314618F087
:10BBA000F3FE641BAB440028F3D101200DB0BDE8C7
:10BBB000F08F043603220223AEE700BF2DE9F043E5
:10BBC0000B888E88103B87B00D4604460D2B2CD871
:10BBD000DFE803F077072B2B2B2B2B2B2B2B2B8426
:10BBE0002B2E836AF340DB071FD55648FEF79EFDD8
:10BBF000D8B9A36A94F82C20012505FA06F623EAA1
:10BC00000606A6628AB994F82D3073B11F23246208
:10BC1000A38404F1200104F14400FFF74FFF20B991
:10BC2000494801F0BFFB84F82C5007B0BDE8F08311
:10BC300090F92E2091F91B309A423ADC90F8383076
:10BC400001F108080BB3DFF80491002602E0D6B238
:10BC5000B34218D9636BCDF8089003EB061302AA20
:10BC600059680391D3E9027341462046059304972E
:10BC7000FFF744FF074602A800F032FE94F8383080
:10BC8000721C002FE3D09E4213D094F82F30002B6B
:10BC900049D095F82430012B0BD9296A4A78FF2A1C
:10BCA00030D00A78D0430344013213F0FF0311442B
:10BCB000F4D104F120010020FFF700FF07B0BDE838
:10BCC000F083CB7B022BB0D1836A012202FA06F605
:10BCD00033430022836280F82C20A6E70B7A012BE5
:10BCE000A3D1002580F82C50174801F06FFB226C7F
:10BCF000002A9AD0009502AB29462846029513F0F7
:10BD000021F992E711F8025B6A1ED2B2022A28BF1B
:10BD1000022202A818F046FE012DCAD0228EBDF8DC
:10BD200008309A42C5D1E26B002A3FF47EAF01236E
:10BD30000093404602AB2421CDF8088013F002F9AD
:10BD400073E700BF0C680020FC670020489F0400D8
:10BD500046DF70477FDF704780DF704781DF7047C5
:10BD600085DF704786DF704738B51C460D460346B1
:10BD7000114628462246984734B1014600222846FB
:10BD8000BDE83840FFF7E8BF38BD00BF10B50C462E
:10BD900082B003466946204698476A4620460121FC
:10BDA000FFF7DAFF02B010BD10B50446083001F00D
:10BDB00017FF074B2360032200232271C4F81034BD
:10BDC000C4F81434C4F81834C4F81C34204610BD28
:10BDD0003507100330B50446ADF55F7D00F1080569
:10BDE0008F4801F091FE0821284601F0FDFE6846CB
:10BDF00001F004FF6846082101F004FF6946284667
:10BE000001F0A2FE04F54F714122684601F008FFDF
:10BE1000684601F001FF94F85C0394F85B2394F802
:10BE20003D1394F83E3384F83D0384F83E2394F8A0
:10BE30005A0394F8592394F83F5384F85C1384F818
:10BE40005B3394F8401394F8413384F83F0384F84B
:10BE5000402394F8580394F8572384F85A5384F8ED
:10BE6000591394F8425394F8431384F8410384F827
:10BE7000583394F8560394F8443384F8422394F8E2
:10BE8000552384F8575384F8430384F8442384F8F3
:10BE9000553384F8561394F8451394F8540394F8E2
:10BEA000532394F8463384F8450384F8462394F8E2
:10BEB000520394F8512394F8475384F8541384F8A8
:10BEC000533394F8481394F8493384F8470384F8BB
:10BED000482394F8500394F84F2384F8525384F87D
:10BEE000511394F84A5394F84B1384F8490384F897
:10BEF000503394F84E0394F84C3384F84A2394F862
:10BF00004D2384F84F5384F84B0384F84C2384F872
:10BF10004D3384F84E1394F85D1394F87C0394F831
:10BF20007B2394F85E3384F85D0384F85E2394F8F1
:10BF30007A0394F8792394F85F5384F87C1384F897
:10BF40007B3394F8601394F8613384F85F0384F8CA
:10BF5000602394F8780394F8772384F87A5384F86C
:10BF6000791394F8625394F8631384F8610384F8A6
:10BF7000783394F8760394F8643384F8622394F861
:10BF8000752384F8775384F8630384F8642384F872
:10BF9000753384F8761394F8651394F8740394F861
:10BFA000732394F8663384F8650384F8662394F861
:10BFB000720394F8712394F8675384F8741384F827
:10BFC000733394F8681394F8693384F8670384F83A
:10BFD000682394F8700394F86F2384F8725384F8FC
:10BFE000711394F86A5394F86B1384F8690384F816
:10BFF000703394F86E0394F86C3384F86A2394F8E1
:10C000006D2384F86B03012084F86F5384F86E135A
:10C0100084F86C2384F86D330DF55F7D30BD00BF6F
:10C02000886F00200B7803F0FE03042B01D0002062
:10C03000704770B515468CB00C462022002104A82C
:10C0400018F0D8FC28686968AA68EB686D460FC5C7
:10C050009DF800109DF80F209DF801609DF80E508E
:10C060009DF802008DF80F1023469DF80D108DF8F5
:10C0700000209DF803208DF80E608DF801509DF88A
:10C080000C609DF804508DF80D008DF802109DF89D
:10C090000B009DF805108DF80C209DF80A208DF8F6
:10C0A00003608DF80B508DF804008DF805208DF895
:10C0B0000A109DF8061033F8042FADF810209B7875
:10C0C0009DF809209DF81D009DF810609DF81F50F7
:10C0D0008DF809108DF806209DF811109DF81E208E
:10C0E0008DF81D309DF807308DF812008DF81F6017
:10C0F0009DF808009DF813608DF810508DF81E1003
:10C100009DF81C509DF814108DF811208DF8083002
:10C110009DF81B209DF81A308DF807008DF81C60E3
:10C120008DF813509DF815608DF81B108DF81420B4
:10C1300068468DF815309DF819109DF817209DF868
:10C1400018309DF816508DF818208DF816108DF8BF
:10C1500017308DF81A608DF81950FFF7F9FD6278E5
:10C160009DF82F309DF82E009DF82D108DF82100A0
:10C170009A428DF8221004F1010404D0012080F0CD
:10C1800001000CB070BD6278C3B29A4204F10104A0
:10C19000F4D16278CBB29A42F0D10020EFE700BF31
:10C1A00008B5137CDB0758BF1C32084602F11201A8
:10C1B000FFF7D6FDB0FA80F0400908BDF0B58F88D2
:10C1C0000E46ADF56B7D04463946464801F0D2F87F
:10C1D0003388133B0546072B2FD8DFE813F03E00CA
:10C1E0005F006D002E002803870008003100337ABD
:10C1F000B3B9737B9B070ED4294602A8FFF7D2F888
:10C200000299BDF80C209DF80E3084F80C34C4F867
:10C210000614A4F80A24284604F2BE31FFF7EEF80B
:10C22000D4F818244AB1307A0D90022300210093EB
:10C2300008460CAB0C9712F085FE0DF56B7DF0BD3A
:10C24000D4F81C24002AF8D00123002100930846CA
:10C250000CAB0C9712F076FEEFE704F2BE3304F25B
:10C26000DA320C9304F2F63300251092119304F2A3
:10C270003D3204F27E330F921393CDE90D551295A2
:10C28000FFF78AF801280CBF22462A460CAB294644
:10C290003846FFF75FFD0DF56B7DF0BD0CA9FFF78C
:10C2A000C3F80346002800F0D2820CA938460023C8
:10C2B0001AAAFFF757FDC0E7D4F810140029BCD024
:10C2C000B37B094A03F001030F930423CDE90C1754
:10C2D00006F10800009306210CAB0E9012F032FE1E
:10C2E000ABE700BFFC67002069BD020094F87E3315
:10C2F00094F89D2394F87FC394F89C6394F880533A
:10C3000094F89B0384F89D33042194F89A3384F8BD
:10C310007D1384F87E2394F8811394F8822384F8A3
:10C320009CC384F87F6394F899C394F8836384F87A
:10C330009B5384F8800394F8985394F8840384F80A
:10C340009A1384F8813394F8971394F8853384F81A
:10C35000992394F8962384F882C384F8986384F828
:10C36000835384F8970384F8841384F8852384F82E
:10C37000963394F8862394F8953394F887C394F809
:10C38000946394F8885394F8930394F8891384F889
:10C39000952384F8863394F8922394F88A3384F8AA
:10C3A00094C384F8876394F891C394F88B6384F8FA
:10C3B000935384F8880394F8905394F88C0384F88A
:10C3C000921384F8892394F88F1394F88D2384F8BA
:10C3D000913394F88E3384F88AC384F8906384F898
:10C3E0008B5384F88F0384F88C1384F88D3384F88E
:10C3F0008E2394F89E2394F8BD3394F89FC394F849
:10C40000BC6394F8A05394F8BB0394F8A11384F888
:10C41000BD2384F89E3394F8BA2394F8A23384F8A9
:10C42000BCC384F89F6394F8B9C394F8A36384F8F9
:10C43000BB5384F8A00394F8B85394F8A40384F889
:10C44000BA1384F8A12394F8B71394F8A52384F8B9
:10C45000B93394F8B63384F8A2C384F8B86384F887
:10C46000A35384F8A41384F8B62384F8A53384F87E
:10C47000B70394F8A60394F8B51394F8A72394F897
:10C48000B43394F8A86394F8B35384F8B50384F8EC
:10C49000A61394F8A90394F8B21384F8B42384F88B
:10C4A000A73394F8AA2394F8B13384F8B36384F8DB
:10C4B000A85394F8AB6394F8B05384F8B20384F8AB
:10C4C000A91394F8AC0394F8AF1384F8B12384F85B
:10C4D000AA3394F8AD2394F8AE3384F8AD3384F8DE
:10C4E000AE2384F8B06384F8AB5384F8AF0384F8C8
:10C4F000AC130CA801F082FB0CA8082101F082FB10
:10C5000004F27D310CA8412201F09CFB0CA904AA85
:10C51000202304F1080001F045FB0CA801F07CFB8E
:10C520009DF810109DF82F009DF811309DF82E20D9
:10C530009DF812609DF82D508DF810008DF82F1089
:10C540009DF813009DF82C108DF811208DF82E30D9
:10C550009DF814209DF82B308DF812508DF82D6029
:10C560009DF815509DF82A608DF813108DF82C0059
:10C570009DF816109DF829008DF814308DF82B20A9
:10C580009DF817309DF828208DF815608DF82A50F9
:10C590008DF816008DF817208DF828308DF82910A9
:10C5A0009DF818109DF827009DF819309DF8262059
:10C5B0009DF81A609DF825508DF818008DF8271009
:10C5C0009DF81B009DF824108DF819208DF8263059
:10C5D0009DF81C209DF823308DF81A508DF82560A9
:10C5E0009DF81D509DF822608DF81B108DF82400D9
:10C5F0009DF81E109DF821008DF81C308DF8232029
:10C600009DF81F309DF820208DF81D608DF8225078
:10C610008DF821108DF81F208DF820308DF81E0028
:10C6200094F87E0394F89D1394F87F2394F89C3338
:10C6300094F8806394F89B5384F89D0384F87E13E8
:10C6400094F8810394F89A1384F89C2384F87F3338
:10C6500094F8822394F8993384F89B6384F8805388
:10C6600094F8836394F8985384F89A0384F88113B8
:10C6700094F8840394F8971384F8992384F8823308
:10C6800094F8852394F8963384F8986384F8835358
:10C6900084F8841384F8962384F8853384F8970308
:10C6A00094F8860394F8951394F8872394F89433B8
:10C6B00094F8886394F8935384F8950384F8861368
:10C6C00094F8890394F8921384F8942384F88733B8
:10C6D00094F88A2394F8913384F8936384F8885308
:10C6E00094F88B6394F8905384F8920384F8891338
:10C6F00094F88C0394F88F1384F8912384F88A3388
:10C7000094F88D2394F88E3384F8906384F88B53D7
:10C7100084F88C1384F88E2384F88D3384F88F0387
:10C7200094F89E0394F8BD1394F89F2394F8BC33B7
:10C7300094F8A06394F8BB5384F8BD0384F89E1367
:10C7400094F8A10394F8BA1384F8BC2384F89F33B7
:10C7500094F8A22394F8B93384F8BB6384F8A05307
:10C7600094F8A36394F8B85384F8BA0384F8A11337
:10C7700094F8A40394F8B71384F8B92384F8A23387
:10C7800094F8A52394F8B63384F8B86384F8B70313
:10C7900084F8A41384F8B62384F8A53384F8A3534B
:10C7A00094F8A65394F8A72394F8B43394F8B503F7
:10C7B00094F8A81394F8B36384F8B55384F8B423B9
:10C7C00094F8A95394F8AA2384F8A73394F8B133C2
:10C7D00094F8B0C384F8A60384F8B31394F8B203B2
:10C7E00094F8AB1384F8A86384F8B25394F8AC635C
:10C7F00094F8AF5384F8B12384F8AA3394F8AD23A6
:10C8000094F8AE3384F8A90384F8B013384604A929
:10C8100084F8ABC384F8AF6384F8AC5384F8AE23D8
:10C8200084F8AD33FFF79AFA0DF56B7DF0BDD4F8BF
:10C830001424002A3FF401AD0223002100930C923E
:10C840000CAB064A0D97084612F07CFBF5E438461F
:10C850001A461946FFF786FAEFE400BF8DBD0200C5
:10C86000A8DF7047704700BF30B5044683B008307A
:10C8700000F07CF804F10C010DF106020120FFF735
:10C88000EFFF054628B9044B04481C602146FFF71A
:10C89000AFF8284603B030BDF86700203C6C00209C
:10C8A00030B44C68C460D1E90241054A054D0260CC
:10C8B000054A8560C0E90441426030BC704700BF52
:10C8C000309F0400489F04000000111183790B7011
:10C8D000C3791370704700BF62DF704763DF704732
:10C8E000704700BF10B5044611F0FEFD204610BD94
:10C8F00010B4054C8180002201210460C0E90222AD
:10C900005DF8044B81717047489F040038B50E4BA9
:10C910000360044608460D4618F0C0FF042806D000
:10C920000023A371E560A380A360204638BD28469C
:10C930001022002119F03AFF01220023A271A080E9
:10C94000C4E90233204638BD489F04008379012B97
:10C950000AD0826832B9C26822B9012B8CBF80200C
:10C960000020704780207047102070472DE9F04765
:10C97000857982B0002D47D1C7680646002F47D081
:10C9800010200FF003FA8246384618F087FF441E45
:10C9900030B3DFF88490A84604E00134023C1FD491
:10C9A000102D1DD017F804C0BCF12D0F07EB0402A9
:10C9B000F3D099F80030ADF805808DF8043012F806
:10C9C000013C8DF804301022002101A88DF805C02B
:10C9D00019F0ECFE6B1C023C0AF80500DDB2DFD555
:10C9E000C6F808A0BAF1000F0ED0B11D5046FFF7EF
:10C9F00073FFB168321D1020FFF770FFB0FA80F0AE
:10CA0000400902B0BDE8F087012002B0BDE8F08720
:10CA1000D0F808A0E6E700BF3C9F04004DDF704758
:10CA20004EDF70474FDF704750DF70474BDF704776
:10CA300010DF70477CDF70477DDF704760DF704735
:10CA400069DF704761DF704766DF704767DF7047F7
:10CA5000704700BF0C2012F007BD00BF30B5224C5C
:10CA6000224D83B0D4F828074FF0FF310FF074FE49
:10CA70000028F7D0C5B101A8FFF7D8FF0528F1D0ED
:10CA80000028F8D1019B032B1BD8012BF3D91846A2
:10CA90000EF004FCEFE70A2B04D0092B21D00B2B5E
:10CAA00002D1012007F0BEF801A8FFF7BFFF05285B
:10CAB000D8D00028F8D1019BA3F10902022AF3D8AB
:10CAC000E9E7A3F10902022AD5D80A2B04D0092BE1
:10CAD00005D00B2BCFD1012007F0A4F8CBE7022023
